:0400000031EF0FF0DD
:10080000002020202043455252414455524120208F
:100810002000202020494E434F525245435441204E
:100820002020002020204249454E56454E49444F45
:1008300020202000202020454C454354524F4E4953
:10084000434120200020636C61766520636F7272E3
:10085000656374612000494E47524553452050411D
:100860005353574F5244002020202020434C4156E0
:1008700045202020202000202050524F594543542D
:100880004F2043415341002020424C4F5155454198
:10089000444F2025647300202020494E54454C4984
:1008A00047454E54450020204D415820494E54455F
:1008B0004E544F530020202054656D702062616AB1
:1008C000610020202054656D7020616C74610068A7
:1008D000756D656461643A20256400202048756D5B
:0F08E0003A25640054656D703A256400250000C8
:1008F0008A9E8A8C8A8A8A8881B681EF04F083EF87
:1009000004F09CEF04F0060E016E300EE82EFED7C8
:10091000012EFCD700D081A690EF04F092EF04F0F6
:100920008BEF04F00D0E016EFC0EE82EFED7012EAB
:10093000FCD7310E89EF06F081B4A1EF04F0A3EFEC
:1009400004F0BCEF04F0060E016E300EE82EFED768
:10095000012EFCD700D081A4B0EF04F0B2EF04F078
:10096000ABEF04F00D0E016EFC0EE82EFED7012E4B
:10097000FCD7320E89EF06F081B2C1EF04F0C3EF6D
:1009800004F0DCEF04F0060E016E300EE82EFED708
:10099000012EFCD700D081A2D0EF04F0D2EF04F0FA
:1009A000CBEF04F00D0E016EFC0EE82EFED7012EEB
:1009B000FCD7330E89EF06F081B0E1EF04F0E3EFEE
:1009C00004F0FCEF04F0060E016E300EE82EFED7A8
:1009D000012EFCD700D081A0F0EF04F0F2EF04F07C
:1009E000EBEF04F00D0E016EFC0EE82EFED7012E8B
:1009F000FCD7410E89EF06F08A8E8A9C8A8A8A8803
:100A000081B605EF05F007EF05F020EF05F0060EC3
:100A1000016E300EE82EFED7012EFCD700D081A645
:100A200014EF05F016EF05F00FEF05F00D0E016E57
:100A3000FC0EE82EFED7012EFCD7340E89EF06F00F
:100A400081B425EF05F027EF05F040EF05F0060E25
:100A5000016E300EE82EFED7012EFCD700D081A407
:100A600034EF05F036EF05F02FEF05F00D0E016EB7
:100A7000FC0EE82EFED7012EFCD7350E89EF06F0CE
:100A800081B245EF05F047EF05F060EF05F0060E87
:100A9000016E300EE82EFED7012EFCD700D081A2C9
:100AA00054EF05F056EF05F04FEF05F00D0E016E17
:100AB000FC0EE82EFED7012EFCD7360E89EF06F08D
:100AC00081B065EF05F067EF05F080EF05F0060EE9
:100AD000016E300EE82EFED7012EFCD700D081A08B
:100AE00074EF05F076EF05F06FEF05F00D0E016E77
:100AF000FC0EE82EFED7012EFCD7420E89EF06F041
:100B00008A8E8A8C8A9A8A8881B689EF05F08BEF63
:100B100005F0A4EF05F0060E016E300EE82EFED7AC
:100B2000012EFCD700D081A698EF05F09AEF05F0D2
:100B300093EF05F00D0E016EFC0EE82EFED7012E90
:100B4000FCD7370E89EF06F081B4A9EF05F0ABEFC3
:100B500005F0C4EF05F0060E016E300EE82EFED74C
:100B6000012EFCD700D081A4B8EF05F0BAEF05F054
:100B7000B3EF05F00D0E016EFC0EE82EFED7012E30
:100B8000FCD7380E89EF06F081B2C9EF05F0CBEF44
:100B900005F0E4EF05F0060E016E300EE82EFED7EC
:100BA000012EFCD700D081A2D8EF05F0DAEF05F0D6
:100BB000D3EF05F00D0E016EFC0EE82EFED7012ED0
:100BC000FCD7390E89EF06F081B0E9EF05F0EBEFC5
:100BD00005F004EF06F0060E016E300EE82EFED78B
:100BE000012EFCD700D081A0F8EF05F0FAEF05F058
:100BF000F3EF05F00D0E016EFC0EE82EFED7012E70
:100C0000FCD7430E89EF06F08A8E8A8C8A8A8A98EE
:100C100081B60DEF06F00FEF06F028EF06F0060E96
:100C2000016E300EE82EFED7012EFCD700D081A633
:100C30001CEF06F01EEF06F017EF06F00D0E016E2A
:100C4000FC0EE82EFED7012EFCD72A0E89EF06F007
:100C500081B42DEF06F02FEF06F048EF06F0060EF8
:100C6000016E300EE82EFED7012EFCD700D081A4F5
:100C70003CEF06F03EEF06F037EF06F00D0E016E8A
:100C8000FC0EE82EFED7012EFCD7300E89EF06F0C1
:100C900081B24DEF06F04FEF06F068EF06F0060E5A
:100CA000016E300EE82EFED7012EFCD700D081A2B7
:100CB0005CEF06F05EEF06F057EF06F00D0E016EEA
:100CC000FC0EE82EFED7012EFCD7230E89EF06F08E
:100CD00081B06DEF06F06FEF06F088EF06F0060EBC
:100CE000016E300EE82EFED7012EFCD700D081A079
:100CF0007CEF06F07EEF06F077EF06F00D0E016E4A
:100D0000FC0EE82EFED7012EFCD7440E89EF06F02C
:100D1000000E12001EC036F01FC037F020C038F0A1
:100D200021C039F022C03AF023C03BF024C03CF08F
:100D300025C03DF03DBE9FEF06F0A2EF06F0010E8C
:100D4000A3EF06F0000E346E356A34503510D8B477
:100D5000ACEF06F0AEEF06F0BEEF06F03D1E3C1E17
:100D60003B1E3A1E391E381E371E366C000E3722C7
:100D7000382239223A223B223C223D220001C6BFC2
:100D8000C4EF06F0C6EF06F0C7EF06F0C793C6BF84
:100D9000D4EF06F0C65106E1C505D8B0D2EF06F093
:100DA000D4EF06F0DAEF06F0000E316E010E306E71
:100DB000DEEF06F0C5C030F0C6C031F0C3C032F07F
:100DC000C4C033F034503510D8A4E9EF06F0EBEF8F
:100DD00006F0F2EF06F0C7A5F0EF06F0F2EF06F02E
:100DE000F5EF06F03206D8A03306000E3F6E1F0E58
:100DF0003E6E000E01011F6F7AEF07F03E06D8A08D
:100E00003F06000E3E24D96E010E3F20DA6E36C03A
:100E100001F037C002F038C003F039C004F03AC026
:100E200005F03BC006F03CC007F03DC008F00A0EDC
:100E3000096E000E0A6E000E0B6E000E0C6E000E98
:100E40000D6E000E0E6E000E0F6E000E106EFDEC9D
:100E50000BF001C026F002C027F003C028F004C048
:100E600029F005C02AF006C02BF007C02CF008C0FE
:100E70002DF026C013F028C014F052EC0FF01350E0
:100E8000300FDF6E3006D8A031063206D8A0330608
:100E900036C001F037C002F038C003F039C004F0AA
:100EA0003AC005F03BC006F03CC007F03DC008F07A
:100EB0000A0E096E000E0A6E000E0B6E000E0C6E0E
:100EC000000E0D6E000E0E6E000E0F6E000E106EF8
:100ED00039EC0BF001C036F002C037F003C038F037
:100EE00004C039F005C03AF006C03BF007C03CF042
:100EF00008C03DF03FBE85EF07F03F5008E13E04DB
:100F0000D8A085EF07F087EF07F0B8EF07F036506D
:100F10003710381039103A103B103C103D10D8A44F
:100F200094EF07F096EF07F0FEEF06F031BEA3EF67
:100F300007F0315006E13004D8B0A1EF07F0A3EF7D
:100F400007F0FEEF06F033BEAEEF07F0335008E1D6
:100F50003204D8A0AEEF07F0B0EF07F0B8EF07F01B
:100F60000001C7B3B6EF07F0B8EF07F0FEEF06F0E9
:100F700034503510D8A4BFEF07F0C1EF07F0C9EF28
:100F800007F00001C7A5C7EF07F0C9EF07F0E7EFCB
:100F900007F03E06D8A03F0634503510D8A4D3EF52
:100FA00007F0D5EF07F0DBEF07F0000E2F6E2B0EEA
:100FB0002E6EDFEF07F0000E2F6E2D0E2E6E000E40
:100FC0003E24D96E010E3F20DA6E2EC0DFFF1CC01A
:100FD00011F01DC012F0000E3E24136E010E3F20D2
:100FE000146E32C015F033C016F014EC0DF011C0C1
:100FF0001CF012C01DF01200000E00019E6F000ECA
:101000009D6F720ED36E19EC10F0B6EC0DF000EC83
:1010100010F0F80E8B168B9E8B8212EC10F0010EE6
:10102000046E010E26EC0EF0770E056E080E066EAD
:1010300077EC0DF0010E046E020E26EC0EF0970E0A
:10104000056E080E066E77EC0DF0150E00017E6F32
:101050004B0E7D6FBE0EE82EFED77D2FFCD77E2F68
:10106000FAD700F0010E046E010E26EC0EF0010E10
:10107000056E080E066E77EC0DF0010E046E020E82
:1010800026EC0EF0340E056E080E066E77EC0DF0B1
:10109000150E00017E6F4B0E7D6FBE0EE82EFED743
:1010A0007D2FFCD77E2FFAD700F012EC10F0010E46
:1010B000046E010E26EC0EF0560E056E080E066E3E
:1010C00077EC0DF082EF08F078EC04F00001C96FC6
:1010D000C951D8B46EEF08F070EF08F082EF08F055
:1010E000CB0ECA25D96EDA6A000EDA22C9C0DFFF3C
:1010F000CA29046E020E26EC0EF02A0E72EC0FF0D6
:101100000001CA2B030E0001CA6589EF08F08BEFBE
:1011100008F064EF08F0030E00017E6F080E7D6F8B
:10112000770EE82EFED77D2FFCD77E2FFAD712EC54
:1011300010F0CB0E016E000E026EDC0E036E000E80
:10114000046EF0EC0DF001500210D8A4AAEF08F0E4
:10115000ACEF08F0D7EF08F0010E046E010E26EC9C
:101160000EF0450E056E080E066E77EC0DF0010EC2
:10117000046E020E26EC0EF0230E056E080E066EAF
:1011800077EC0DF08B808B921F0E00017E6F710E3D
:101190007D6F1E0EE82EFED77D2FFCD77E2FFAD74F
:1011A00000F08B908B8258EC09F050EF09F00001B1
:1011B0009D4B9E2B010E046E010E26EC0EF0670E69
:1011C000056E080E066E77EC0DF0010E046E020E31
:1011D00026EC0EF0120E056E080E066E77EC0DF082
:1011E0008B90150E00017E6F4B0E7D6FBE0EE82EAC
:1011F000FED77D2FFCD77E2FFAD700F0030E00011B
:101200009D199E11D8A407EF09F009EF09F050EFDE
:1012100009F012EC10F0000E0001A06F140E9F6F89
:10122000010E046E010E26EC0EF0A60E056E080EE1
:10123000066E77EC0DF0010E046E020E26EC0EF039
:101240007F0E586E000E596E870E5A6E080E5B6E3A
:101250009FC05CF0A0C05DF0E6EC0EF07F0E056E66
:10126000000E066E77EC0DF00B0E00017E6F260E61
:101270007D6F5D0EE82EFED77D2FFCD77E2FFAD72F
:1012800000D012EC10F000019F07D8A0A007A0BF6B
:101290004EEF09F04CEF09F010EF09F056EF09F0AE
:1012A000000E0001CA6F8B9E55EF08F000EF00F0B2
:1012B00019EC10F0B6EC0DF0BFEC0FF001C079F0B6
:1012C00002C07AF0E2EC0FF0A9EC0FF0B8EC0EF0EF
:1012D00000017B6FB8EC0EF0B8EC0EF000017C6FF3
:1012E000B8EC0EF0B8EC0EF079C001F07AC002F064
:1012F000F2EC0FF0150E00017C6581EF09F083EF31
:1013000009F0D5EF09F08B848B8E12EC10F0010EF2
:10131000046E010E26EC0EF0B50E056E080E066E7C
:1013200077EC0DF0010E046E020E26EC0EF06F0E3F
:10133000586E000E596EE40E5A6E080E5B6E7CC03D
:101340005CF05D6AE6EC0EF06F0E056E000E066E48
:1013500077EC0DF0080E046E020E26EC0EF06F0E08
:10136000586E000E596EDB0E5A6E080E5B6E7BC017
:101370005CF05D6AEC0E5E6E080E5F6EE6EC0EF0E1
:101380006F0E056E000E066E77EC0DF01F0E00015D
:101390006E6F710E6D6F1E0EE82EFED76D2FFCD78F
:1013A0006E2FFAD700F05CEF09F0150E7C61DBEFD1
:1013B00009F0DDEF09F01CEF0AF08B9E8B8412EC34
:1013C00010F0010E046E010E26EC0EF0C20E056E3A
:1013D000080E066E77EC0DF0010E046E020E26EC80
:1013E0000EF06F0E586E000E596EE40E5A6E080E17
:1013F0005B6E7CC05CF05D6AE6EC0EF06F0E056E15
:10140000000E066E77EC0DF0080E046E020E26EC50
:101410000EF06F0E586E000E596EDB0E5A6E080EEF
:101420005B6E7BC05CF05D6AEC0E5E6E080E5F6EFC
:10143000E6EC0EF0C0EF09F08B9E8B9412EC10F0EE
:101440006F0E586E000E596EE40E5A6E080E5B6EEB
:101450007CC05CF05D6AE6EC0EF06F0E056E000E6F
:10146000066E77EC0DF0010E046E020E26EC0EF007
:101470006F0E586E000E596ECF0E5A6E080E5B6ED0
:101480007BC05CF05D6AEC0E5E6E080E5F6EE6EC93
:101490000EF06F0E056E000E066E77EC0DF0060E68
:1014A00000016E6F130E6D6FAD0EE82EFED76D2F1F
:1014B000FCD76E2FFAD700D05CEF09F0120042C0C3
:1014C000D9FF43C0DAFFDECFF6FFDDCFF7FF08001C
:1014D000F550250AD8A46FEF0AF071EF0AF01DEF5E
:1014E0000BF042C0D9FF43C0DAFFDE2A000EDD2236
:1014F000000E0001C46F000EC36FC3C0C7F0C4C0AC
:10150000C8F0C569C66942C0D9FF43C0DAFFDECF63
:10151000F6FFDDCFF7FF0800F550640AD8B493EF6B
:101520000AF095EF0AF0A7EF0AF042C0D9FF43C0D6
:10153000DAFFDECFF6FFDDCFF7FF0800F550690ACE
:10154000D8A4A5EF0AF0A7EF0AF0E7EF0AF042C02F
:10155000D9FF43C0DAFFDE2A000EDD2244C0D9FFE6
:1015600045C0DAFFDFCF46F0020EDE26DFCF47F0C0
:10157000000EDD2246C0D9FF47C0DAFFDECF48F0BB
:10158000DDCF49F0000E49BEFF0E4A6E4B6E4C6E29
:101590004D6E4E6E4F6E40C01CF041C01DF048C0F5
:1015A0001EF049C01FF04AC020F04BC021F04CC0D3
:1015B00022F04DC023F04EC024F04FC025F08AEC3D
:1015C00006F01CC040F01DC041F038EF0BF042C0E7
:1015D000D9FF43C0DAFFDECFF6FFDDCFF7FF08000B
:1015E000F550250AD8A4F7EF0AF0F9EF0AF010EF4A
:1015F0000BF042C0D9FF43C0DAFFDE2A000EDD2225
:10160000000E026E250E016E40C003F041C004F0D2
:10161000AFEC0CF0000E416E010E406E38EF0BF097
:1016200042C0D9FF43C0DAFFDE2A000EDD22000EE1
:10163000416E000E406E38EF0BF042C0D9FF43C040
:10164000DAFFDECFF6FFDDCFF7FF0800F550016EC1
:10165000026A40C003F041C004F0AFEC0CF042C09D
:10166000D9FF43C0DAFFDE2A000EDD220AEF0BF0BD
:101670001200000E126E10BE42EF0BF040EF0BF0A6
:1016800054EF0BF0101E0F1E0E1E0D1E0C1E0B1E17
:101690000A1E096C000E0A220B220C220D220E22B9
:1016A0000F221022010E126E08BE5BEF0BF059EFF5
:1016B0000BF06DEF0BF0081E071E061E051E041E24
:1016C000031E021E016C000E0222032204220522C8
:1016D000062207220822010E121A20EE13F0070E2E
:1016E000DE6AE806FDE209500A100B100C100D101E
:1016F0000E100F101010D8B480EF0BF082EF0BF02B
:10170000D4EF0BF0010E116E90EF0BF0D89009366C
:101710000A360B360C360D360E360F361036112AB9
:1017200010AE95EF0BF097EF0BF086EF0BF0D89023
:1017300013361436153616361736183619361A3645
:101740000950015C0A5002580B5003580C500458C1
:101750000D5005580E5006580F5007581050085895
:10176000D8A0B5EF0BF0B7EF0BF0C8EF0BF00950B6
:10177000015E0A50025A0B50035A0C50045A0D5085
:10178000055A0E50065A0F50075A1050085A138027
:10179000D89010320F320E320D320C320B320A3228
:1017A0000932112E97EF0BF01250D8B4DAEF0BF08C
:1017B000DCEF0BF0ECEF0BF01A1E191E181E171EB3
:1017C000161E151E141E136C000E1422152216224E
:1017D0001722182219221A2213C001F014C002F095
:1017E00015C003F016C004F017C005F018C006F0CD
:1017F00019C007F01AC008F01200000E126E08BEE1
:1018000006EF0CF004EF0CF018EF0CF0081E071EAA
:10181000061E051E041E031E021E016C000E02227F
:10182000032204220522062207220822010E126E3C
:1018300010BE1FEF0CF01DEF0CF02FEF0CF0101E80
:101840000F1E0E1E0D1E0C1E0B1E0A1E096C000E16
:101850000A220B220C220D220E220F2210220950E6
:101860000A100B100C100D100E100F101010D8B421
:101870003CEF0CF03EEF0CF086EF0CF0010E116E19
:101880004CEF0CF0D89009360A360B360C360D3674
:101890000E360F361036112A10AE51EF0CF053EF02
:1018A0000CF042EF0CF00950015C0A5002580B504A
:1018B00003580C5004580D5005580E5006580F5040
:1018C000075810500858D8A068EF0CF06AEF0CF0D9
:1018D0007AEF0CF00950015E0A50025A0B50035A7D
:1018E0000C50045A0D50055A0E50065A0F50075A04
:1018F0001050085AD89010320F320E320D320C327E
:101900000B320A320932112E53EF0CF01250D8B4B8
:101910008CEF0CF08EEF0CF09EEF0CF0081E071E03
:10192000061E051E041E031E021E016C000E02226E
:1019300003220422052206220722082201C001F008
:1019400002C002F003C003F004C004F005C005F0BB
:1019500006C006F007C007F008C008F012000350E8
:101960000410D8B4B6EF0CF0B8EF0CF0C1EF0CF0E7
:1019700003500410D8A4BFEF0CF0C1EF0CF0C6EF79
:101980000CF001501FEC10F013EF0DF020EE09F0F9
:101990000350D9260450DA22DE50DE10D8B4D3EF3B
:1019A0000CF0D5EF0CF0F0EF0CF020EE09F0035046
:1019B000D9260450DA2210EE03F00350E126045039
:1019C000E222DE50E65CE650800A096EDE50800AB4
:1019D0000958D8B0EEEF0CF0F0EF0CF013EF0DF06B
:1019E00020EE03F00350D9260450DA22DECF05F0B2
:1019F000DDCF06F003C0D9FF04C0DAFFDECF07F069
:101A0000DDCF08F005500724D96E06500820DA6EA5
:101A100001C0DFFF20EE03F00350D9260450DA2284
:101A2000DE2A000EDD2212000001C7A11AEF0DF020
:101A30001CEF0DF026EF0DF013C00AF014C00BF0F0
:101A400011C00CF012C00DF00FEC0FF016BE2BEF12
:101A50000DF02DEF0DF033EF0DF015C01AF016C09C
:101A60001BF037EF0DF0000E1B6E000E1A6E000E0D
:101A7000196E000E186E49EF0DF0000E026E200E6A
:101A8000016E11C003F012C004F0AFEC0CF0184A64
:101A9000192A1A50185C1950800A176E1B50800AB8
:101AA0001758D8A056EF0DF058EF0DF03DEF0DF0A0
:101AB0000001C7B15EEF0DF060EF0DF06AEF0DF0C1
:101AC00013C00AF014C00BF011C00CF012C00DF0DE
:101AD0000FEC0FF013C001F014C002F08EEC0FF009
:101AE0001A500124116E1B500220126E1200000EBB
:101AF0000A6E000E096E97EF0DF009500524076E6F
:101B00000A500620086E07C0F6FF08C0F7FFF86A03
:101B1000070EF76403D00800F55005D0F6CFE1FFBB
:101B2000F7CFE2FFE75072EC0FF0094A0A2A09509A
:101B30000524076E0A500620086E07C0F6FF08C08D
:101B4000F7FFF86A070EF76403D00800F55005D0D8
:101B5000F6CFE1FFF7CFE2FFE7500009D8A4B3EFDB
:101B60000DF0B5EF0DF07DEF0DF01200000E956E4B
:101B7000000E8AEC0EF0340E046EF20EE82EFED744
:101B8000042EFCD7030ED2EC0FF00D0E046EFC0EEB
:101B9000E82EFED7042EFCD7030ED2EC0FF01D0E5C
:101BA000046E910EE82EFED7042EFCD700F0030E33
:101BB000D2EC0FF0020ED2EC0FF0020ED2EC0FF0CE
:101BC000080ED2EC0FF0000ED2EC0FF00C0ED2EC9F
:101BD0000FF0000ED2EC0FF0060ED2EC0FF0120058
:101BE000F6EF0DF0014A022A034A042A03C0D9FF86
:101BF00004C0DAFF01C0E1FF02C0E2FFDE50E618D8
:101C0000D8A405EF0EF007EF0EF013EF0EF001C0B1
:101C1000D9FF02C0DAFFDF50D8A411EF0EF013EFA6
:101C20000EF0F2EF0DF001C0D9FF02C0DAFFDF5075
:101C3000056E03C0D9FF04C0DAFFDF50066E065000
:101C4000055C016E026AD8A002061200056E05044A
:101C5000D8A42DEF0EF02FEF0EF040EF0EF0045051
:101C60007F0F086E08380F0B066E08500F0B076EBB
:101C70000650D2EC0FF00750D2EC0FF058EF0EF0F8
:101C8000020E0518D8A447EF0EF049EF0EF058EFFA
:101C90000EF00450BF0F086E08380F0B066E085088
:101CA0000F0B076E0650D2EC0FF00750D2EC0FF07E
:101CB000120052C056F053C057F0000E0001C26F20
:101CC000000EC16F77EF0EF050C040F051C041F0F0
:101CD000560E426E000E436E54C044F055C045F09F
:101CE0005FEC0AF040500001C1274150C22356C0AA
:101CF000F6FF57C0F7FF0800F5500009D8A483EF9E
:101D00000EF085EF0EF064EF0EF0C1C050F0C2C0CF
:101D100051F01200016E01A090EF0EF092EF0EF064
:101D200095EF0EF0838896EF0EF0839801A29BEF5B
:101D30000EF09DEF0EF0A0EF0EF0838AA1EF0EF0F3
:101D4000839A01A4A6EF0EF0A8EF0EF0ABEF0EF011
:101D5000838CACEF0EF0839C01A6B1EF0EF0B3EFD5
:101D60000EF0B6EF0EF0838EB7EF0EF0839E1200EA
:101D7000000E026E000E016E80A0C1EF0EF0C3EFE8
:101D80000EF0BCEF0EF0140EE82EFED780A0CBEFC5
:101D90000EF0CDEF0EF0D1EF0EF0D8800236D4EF7A
:101DA0000EF002500224026E80B0D9EF0EF0DBEF8D
:101DB0000EF0D4EF0EF0012A070E0164E2EF0EF0F0
:101DC000E4EF0EF0BCEF0EF0025012005C0E0001CA
:101DD000606F000E616F58C062F059C063F0000E72
:101DE000666F000E656F000E6C6F000E6B6F620EFB
:101DF000506E000E516E5AC052F05BC053F0600E30
:101E0000546E000E556E59EC0EF0000165515824C9
:101E1000D96E66515920DA6E000EDF6E1200000E88
:101E2000106E000E0F6E20EF0FF00EC001F0026A70
:101E30000CC003F00DC004F0AFEC0CF00F4A102AF8
:101E40000F500A24D96E10500B20DA6EDF500E6E40
:101E50000E50D8A42EEF0FF030EF0FF015EF0FF06B
:101E60001200120EF66E200EF76E000EF86E00EEE7
:101E7000D0F010EE11F00900F5CFEEFFE550E15083
:101E8000FAE101EE00F0200EEE6AE806FDE100EE58
:101E9000A1F02F0EEE6AE806FDE1000EF86E0001DB
:101EA000FCEF07F014BE5FEF0FF0145006E11304CF
:101EB000D8B05DEF0FF05FEF0FF06DEF0FF013C0D4
:101EC00015F014C016F0151E161E154A162A15C058
:101ED00013F016C014F071EF0FF013C013F014C01C
:101EE00014F01200046E04500F0B026E0450F00B3D
:101EF000036E838403380F0B8AEC0EF083861A0E70
:101F0000E82EFED700D0839602508AEC0EF083862E
:101F10001A0EE82EFED700D08396120001C003F0FF
:101F200002C004F096EF0FF0014A022A01C0D9FF67
:101F300002C0DAFFDF50D8A4A0EF0FF0A2EF0FF03D
:101F400094EF0FF00350015C016E04500258026ED2
:101F5000120080B0AEEF0FF0B0EF0FF0A9EF0FF06E
:101F600080A0B5EF0FF0B7EF0FF0B0EF0FF080B03B
:101F7000BCEF0FF0BEEF0FF0B7EF0FF01200928240
:101F800080B2C5EF0FF0C9EF0FF0036A032ACAEF62
:101F90000FF0036A0350046E056A04C001F005C027
:101FA00002F01200036E839403508AEC0EF08386D5
:101FB0000B0E026E620EE82EFED7022EFCD700D06A
:101FC00083961200929089902F0E016EC00EE82E1B
:101FD000FED7012EFCD789800D0EE82EFED700F02B
:101FE0009280120001500210D8A4F9EF0FF0FBEF1D
:101FF0000FF0FEEF0FF08C80FFEF0FF08C901200CF
:10200000939E939C939A93989386938493829380C0
:10201000120014000000D0070000B80B0000323599
:032020003031005C
:10202400000ED2EC0FF0010ED2EC0FF012000F0EE6
:0C203400C112F80E9416949E12001200C7
:020000040020DA
:08000000FFFFFFFFFFFFFFFF00
:020000040030CA
:0E0000000008191EFF0181FF0FC00FE00F4026
:00000001FF
